:0300000002029168
:0C029100787FE4F6D8FD75810B0202D8DE
:1003A900E4F50AF50B12045B120003750905120343
:1003B9001D8E0A8F0BC3E50A648094805005E4F50D
:1003C9000AF50BC3E50B941EE50A6480948050037B
:1003D9007509197FC87E001204297FE87E0312047B
:1003E900297509197FE87E0312042975090580BE5C
:100442005389F0438909E4F58AF58CC28DD28C2256
:08045B00120442C297C2B22252
:10031D00D297E4FFEFC3940A748094805004000FC9
:10032D0080F2C297D2B2E4FFFE20B2140FBF0001DB
:10033D000E00D3EF9430EE947540EE7EFF7FFF22DA
:10034D00E4FEFF30B2140FBF00010E00D3EF943066
:10035D00EE947540EE7EFF7FFE22AF8CAD8AE4F504
:10036D008CF58AEFFE7C00E42DFFEC3EFED3EF947E
:10037D0050EE944640057EFF7FFD22AD07AC06E4AE
:10038D001201C97B9A7A9979D9783F12001EE4FB44
:0B039D00FA79C8784212012712020210
:0103A8002232
:10042900D3EF9401EE9400400F7D027CEFDCFEDDFA
:08043900FCEF1F70EB1E80E8D0
:010441002298
:080452007F027E27DEFEDFFCC5
:01045A00227F
:05046A00007F1BDFFE16
:01046F00226A
:0604630001090001080080
:1000030053890F438910758B9C758DFFC28FD2ABBB
:05001300D2AFD28E22E5
:03001B000203F9E4
:0403F900C0E0C0D0D0
:1003FD00C28E758DFF758B9CE508D395095004D27F
:10040D00B78002C2B70508C3E50894C8748094800C
:07041D004003750800D28EB8
:05042400D0D0D0E03251
:10001E00EC4D6011E8497017ED33EC3304600DE4DC
:10002E00FCFFFEFD22E933E8330470F802026E1283
:10003E00023958046009E4CC248150062850090284
:10004E000278284003020275C0E0EB4A7044B98082
:10005E0006D0E0FB020264EF4E701CBD8008EBFF81
:10006E00EAFEE9FD80EBE98DF0A4FEE5F002010762
:10007E00E9CDF9EAFEEBFFEF89F0A4FCE5F0CE89BD
:10008E00F0A42EFFE435F0CD89F0A42DFEE435F07A
:10009E008067EF4E7005BD80D780C3EF8BF0A4ACA8
:1000AE00F0EE8BF0A42CFCE435F0F8EF8AF0A42CE3
:1000BE00E5F038FCE433CB8DF0A42CFCE5F03BF8F6
:1000CE00EE8AF0A42CFCE5F038F8E433CF89F0A4E6
:1000DE002CFCE5F038CF3400CE89F0A42FFFE5F0EC
:1000EE003EFEE433C98DF0A42EFEE5F039CD8AF044
:1000FE00A42FFFE5F03EFEE43DFD33D0E0FB5007BC
:10010E000BBB000F020278EC2CFCEF33FFEE33FE3C
:06011E00ED33FD0202506A
:10012400020278EC5D046005E85904700302026E73
:10013400120239580460F6EC4860F2EC7004FDFEDB
:10014400FF22C860DB2481C85009C39860025006AE
:100154000202759850CAF582E9294B4A7005AB82B0
:1001640002026475F0007C1A7880C3EF9BEE9AED6E
:1001740099400DC3EF9BFFEE9AFEED99FDE842F026
:10018400DC23ACF0D0E0FFD0E0FED0E0FDAB822079
:10019400E7101BEB60BAEC2CFCEF33FFEE33FEED03
:1001A40033FD020250E803F830E705C0F075F000B3
:1001B400EF2FFFEE33FEED33FD40B830E7C280AAE7
:1001C40075F020800E75F010800575F0087D007EB6
:1001D400007F003392D530D503120283EC334010F4
:1001E400EF33FFEE33FEED33FDEC33FCD5F0ED22BF
:0E01F400E5F0247EA2D513CC92E7CDCEFF22FB
:10020200EDD2E7CD33EC3392D524814006E4FFFEF4
:10021200FDFC22FCE4CFCECDCC24E0501174FF8053
:10022200EDC3CC13CCCD13CDCE13CECF13CF0470F0
:07023200F030D5DE0202836B
:10023900E9D2E7C933E833F892D5EDD2E7CD33EC0B
:0702490033FC5002B2D52284
:10025000EC30E7100FBF000C0EBE00080DBD00040F
:100260000BEB6014A2D5EB13FCED92E7FD2274FFBB
:10027000FCFDFEFF22E480F8A2D574FF13FC7D8014
:03028000E480EF28
:10029D000203A9E493A3F8E493A34003F68001F2CB
:1002AD0008DFF48029E493A3F85407240CC8C33362
:1002BD00C4540F4420C8834004F456800146F6DF31
:1002CD00E4800B0102040810204080900463E47E5A
:1002DD00019360BCA3FF543F30E509541FFEE49326
:1002ED00A360010ECF54C025E060A840B8E493A3ED
:1002FD00FAE493A3F8E493A3C8C582C8CAC583CA18
:10030D00F0A3C8C582C8CAC583CADFE9DEE780BECF
:010469000092
:0E028300C3E49FFFE49EFEE49DFDE49CFC228C
:00000001FF
